{
  "contractName": "ReceiptWarranty",
  "abi": [
    {
      "anonymous": false,
      "inputs": [
        {
          "indexed": true,
          "internalType": "address",
          "name": "retailer",
          "type": "address"
        },
        {
          "indexed": false,
          "internalType": "string",
          "name": "productId",
          "type": "string"
        },
        {
          "indexed": false,
          "internalType": "address",
          "name": "customer",
          "type": "address"
        }
      ],
      "name": "CertificateIssued",
      "type": "event"
    },
    {
      "inputs": [
        {
          "internalType": "address",
          "name": "",
          "type": "address"
        },
        {
          "internalType": "string",
          "name": "",
          "type": "string"
        }
      ],
      "name": "certificates",
      "outputs": [
        {
          "internalType": "address",
          "name": "customer",
          "type": "address"
        },
        {
          "internalType": "string",
          "name": "name",
          "type": "string"
        },
        {
          "internalType": "uint256",
          "name": "validTill",
          "type": "uint256"
        }
      ],
      "stateMutability": "view",
      "type": "function",
      "constant": true
    },
    {
      "inputs": [
        {
          "internalType": "string",
          "name": "_productId",
          "type": "string"
        },
        {
          "internalType": "address",
          "name": "_customer",
          "type": "address"
        },
        {
          "internalType": "string",
          "name": "_productName",
          "type": "string"
        },
        {
          "internalType": "uint256",
          "name": "_warrantyMonths",
          "type": "uint256"
        }
      ],
      "name": "issueCertificate",
      "outputs": [],
      "stateMutability": "nonpayable",
      "type": "function"
    },
    {
      "inputs": [
        {
          "internalType": "address",
          "name": "_retailer",
          "type": "address"
        },
        {
          "internalType": "string",
          "name": "_productId",
          "type": "string"
        }
      ],
      "name": "getCertificate",
      "outputs": [
        {
          "components": [
            {
              "internalType": "address",
              "name": "customer",
              "type": "address"
            },
            {
              "internalType": "string",
              "name": "name",
              "type": "string"
            },
            {
              "internalType": "uint256",
              "name": "validTill",
              "type": "uint256"
            }
          ],
          "internalType": "struct ReceiptWarranty.Certificate",
          "name": "",
          "type": "tuple"
        }
      ],
      "stateMutability": "view",
      "type": "function",
      "constant": true
    },
    {
      "inputs": [
        {
          "internalType": "address",
          "name": "_retailer",
          "type": "address"
        },
        {
          "internalType": "string",
          "name": "_productId",
          "type": "string"
        }
      ],
      "name": "isWarrantyValid",
      "outputs": [
        {
          "internalType": "bool",
          "name": "",
          "type": "bool"
        }
      ],
      "stateMutability": "view",
      "type": "function",
      "constant": true
    }
  ],
  "bytecode": "0x608060405234801561001057600080fd5b50610f07806100206000396000f3fe608060405234801561001057600080fd5b506004361061004c5760003560e01c80631d7b05e01461005157806326bf0f031461008157806363e7e85b146100b1578063d52ee6c1146100e3575b600080fd5b61006b60048036038101906100669190610859565b6100ff565b6040516100789190610b53565b60405180910390f35b61009b60048036038101906100969190610859565b61026c565b6040516100a89190610bde565b60405180910390f35b6100cb60048036038101906100c69190610859565b6103d3565b6040516100da93929190610b15565b60405180910390f35b6100fd60048036038101906100f891906108ad565b6104c8565b005b6000806000808573ffffffffffffffffffffffffffffffffffffffff1673ffffffffffffffffffffffffffffffffffffffff1681526020019081526020016000208360405161014e9190610afe565b90815260200160405180910390206040518060600160405290816000820160009054906101000a900473ffffffffffffffffffffffffffffffffffffffff1673ffffffffffffffffffffffffffffffffffffffff1673ffffffffffffffffffffffffffffffffffffffff1681526020016001820180546101cd90610dd3565b80601f01602080910402602001604051908101604052809291908181526020018280546101f990610dd3565b80156102465780601f1061021b57610100808354040283529160200191610246565b820191906000526020600020905b81548152906001019060200180831161022957829003601f168201915b505050505081526020016002820154815250509050806040015142111591505092915050565b6102746106ed565b6000808473ffffffffffffffffffffffffffffffffffffffff1673ffffffffffffffffffffffffffffffffffffffff168152602001908152602001600020826040516102c09190610afe565b90815260200160405180910390206040518060600160405290816000820160009054906101000a900473ffffffffffffffffffffffffffffffffffffffff1673ffffffffffffffffffffffffffffffffffffffff1673ffffffffffffffffffffffffffffffffffffffff16815260200160018201805461033f90610dd3565b80601f016020809104026020016040519081016040528092919081815260200182805461036b90610dd3565b80156103b85780601f1061038d576101008083540402835291602001916103b8565b820191906000526020600020905b81548152906001019060200180831161039b57829003601f168201915b50505050508152602001600282015481525050905092915050565b600060205281600052604060002081805160208101820180518482526020830160208501208183528095505050505050600091509150508060000160009054906101000a900473ffffffffffffffffffffffffffffffffffffffff169080600101805461043f90610dd3565b80601f016020809104026020016040519081016040528092919081815260200182805461046b90610dd3565b80156104b85780601f1061048d576101008083540402835291602001916104b8565b820191906000526020600020905b81548152906001019060200180831161049b57829003601f168201915b5050505050908060020154905083565b600073ffffffffffffffffffffffffffffffffffffffff168373ffffffffffffffffffffffffffffffffffffffff161415610538576040517f08c379a000000000000000000000000000000000000000000000000000000000815260040161052f90610b9e565b60405180910390fd5b600084511161057c576040517f08c379a000000000000000000000000000000000000000000000000000000000815260040161057390610bbe565b60405180910390fd5b600062278d008261058d9190610cef565b426105989190610c99565b905060405180606001604052808573ffffffffffffffffffffffffffffffffffffffff168152602001848152602001828152506000803373ffffffffffffffffffffffffffffffffffffffff1673ffffffffffffffffffffffffffffffffffffffff168152602001908152602001600020866040516106179190610afe565b908152602001604051809103902060008201518160000160006101000a81548173ffffffffffffffffffffffffffffffffffffffff021916908373ffffffffffffffffffffffffffffffffffffffff1602179055506020820151816001019080519060200190610688929190610724565b50604082015181600201559050503373ffffffffffffffffffffffffffffffffffffffff167f9cacaa1785682162de44043d5882bd0db84f38f147729ba89cd4c50c1c0905d886866040516106de929190610b6e565b60405180910390a25050505050565b6040518060600160405280600073ffffffffffffffffffffffffffffffffffffffff16815260200160608152602001600081525090565b82805461073090610dd3565b90600052602060002090601f0160209004810192826107525760008555610799565b82601f1061076b57805160ff1916838001178555610799565b82800160010185558215610799579182015b8281111561079857825182559160200191906001019061077d565b5b5090506107a691906107aa565b5090565b5b808211156107c35760008160009055506001016107ab565b5090565b60006107da6107d584610c31565b610c00565b9050828152602081018484840111156107f257600080fd5b6107fd848285610d91565b509392505050565b60008135905061081481610ea3565b92915050565b600082601f83011261082b57600080fd5b813561083b8482602086016107c7565b91505092915050565b60008135905061085381610eba565b92915050565b6000806040838503121561086c57600080fd5b600061087a85828601610805565b925050602083013567ffffffffffffffff81111561089757600080fd5b6108a38582860161081a565b9150509250929050565b600080600080608085870312156108c357600080fd5b600085013567ffffffffffffffff8111156108dd57600080fd5b6108e98782880161081a565b94505060206108fa87828801610805565b935050604085013567ffffffffffffffff81111561091757600080fd5b6109238782880161081a565b925050606061093487828801610844565b91505092959194509250565b61094981610d49565b82525050565b61095881610d49565b82525050565b61096781610d5b565b82525050565b600061097882610c61565b6109828185610c6c565b9350610992818560208601610da0565b61099b81610e92565b840191505092915050565b60006109b182610c61565b6109bb8185610c7d565b93506109cb818560208601610da0565b6109d481610e92565b840191505092915050565b60006109ea82610c61565b6109f48185610c8e565b9350610a04818560208601610da0565b80840191505092915050565b6000610a1d601883610c7d565b91507f496e76616c696420637573746f6d6572206164647265737300000000000000006000830152602082019050919050565b6000610a5d601283610c7d565b91507f496e76616c69642070726f6475637420494400000000000000000000000000006000830152602082019050919050565b6000606083016000830151610aa86000860182610940565b5060208301518482036020860152610ac0828261096d565b9150506040830151610ad56040860182610ae0565b508091505092915050565b610ae981610d87565b82525050565b610af881610d87565b82525050565b6000610b0a82846109df565b915081905092915050565b6000606082019050610b2a600083018661094f565b8181036020830152610b3c81856109a6565b9050610b4b6040830184610aef565b949350505050565b6000602082019050610b68600083018461095e565b92915050565b60006040820190508181036000830152610b8881856109a6565b9050610b97602083018461094f565b9392505050565b60006020820190508181036000830152610bb781610a10565b9050919050565b60006020820190508181036000830152610bd781610a50565b9050919050565b60006020820190508181036000830152610bf88184610a90565b905092915050565b6000604051905081810181811067ffffffffffffffff82111715610c2757610c26610e63565b5b8060405250919050565b600067ffffffffffffffff821115610c4c57610c4b610e63565b5b601f19601f8301169050602081019050919050565b600081519050919050565b600082825260208201905092915050565b600082825260208201905092915050565b600081905092915050565b6000610ca482610d87565b9150610caf83610d87565b9250827fffffffffffffffffffffffffffffffffffffffffffffffffffffffffffffffff03821115610ce457610ce3610e05565b5b828201905092915050565b6000610cfa82610d87565b9150610d0583610d87565b9250817fffffffffffffffffffffffffffffffffffffffffffffffffffffffffffffffff0483118215151615610d3e57610d3d610e05565b5b828202905092915050565b6000610d5482610d67565b9050919050565b60008115159050919050565b600073ffffffffffffffffffffffffffffffffffffffff82169050919050565b6000819050919050565b82818337600083830152505050565b60005b83811015610dbe578082015181840152602081019050610da3565b83811115610dcd576000848401525b50505050565b60006002820490506001821680610deb57607f821691505b60208210811415610dff57610dfe610e34565b5b50919050565b7f4e487b7100000000000000000000000000000000000000000000000000000000600052601160045260246000fd5b7f4e487b7100000000000000000000000000000000000000000000000000000000600052602260045260246000fd5b7f4e487b7100000000000000000000000000000000000000000000000000000000600052604160045260246000fd5b6000601f19601f8301169050919050565b610eac81610d49565b8114610eb757600080fd5b50565b610ec381610d87565b8114610ece57600080fd5b5056fea26469706673582212209ab111560107c1eabf7cc18b9ef904543eb0422b229db48feb1bef6c2c338ffa64736f6c63430008000033",
  "immutableReferences": {},
  "source": "// SPDX-License-Identifier: MIT\r\npragma solidity ^0.8.0;\r\n\r\ncontract ReceiptWarranty {\r\n    struct Certificate {\r\n        address customer;\r\n        string name;\r\n        uint256 validTill;\r\n    }\r\n\r\n    mapping(address => mapping(string => Certificate)) public certificates;\r\n\r\n    event CertificateIssued(address indexed retailer, string productId, address customer);\r\n\r\n    function issueCertificate(\r\n        string memory _productId,\r\n        address _customer,\r\n        string memory _productName,\r\n        uint256 _warrantyMonths\r\n    ) public {\r\n        require(_customer != address(0), \"Invalid customer address\");\r\n        require(bytes(_productId).length > 0, \"Invalid product ID\");\r\n\r\n        uint256 validTill = block.timestamp + (_warrantyMonths * 30 days);\r\n\r\n        certificates[msg.sender][_productId] = Certificate(\r\n            _customer,\r\n            _productName,\r\n            validTill\r\n        );\r\n\r\n        emit CertificateIssued(msg.sender, _productId, _customer);\r\n    }\r\n\r\n    function getCertificate(address _retailer, string memory _productId)\r\n        public\r\n        view\r\n        returns (Certificate memory)\r\n    {\r\n        return certificates[_retailer][_productId];\r\n    }\r\n\r\n    function isWarrantyValid(address _retailer, string memory _productId)\r\n        public\r\n        view\r\n        returns (bool)\r\n    {\r\n        Certificate memory cert = certificates[_retailer][_productId];\r\n        return (block.timestamp <= cert.validTill);\r\n    }\r\n}\r\n",
  "sourcePath": "C:\\Users\\TULASI\\OneDrive\\Desktop\\receipt-warranty-system\\contracts\\ReceiptWarranty.sol",
  "compiler": {
    "name": "solc",
    "version": "0.8.0+commit.c7dfd78e.Emscripten.clang"
  },
  "schemaVersion": "3.4.16",
  "updatedAt": "2025-04-20T14:05:08.955Z",
  "networkType": "ethereum",
  "devdoc": {
    "kind": "dev",
    "methods": {},
    "version": 1
  },
  "userdoc": {
    "kind": "user",
    "methods": {},
    "version": 1
  }
}