{
  "contractName": "ReceiptWarranty",
  "abi": [
    {
      "inputs": [
        {
          "internalType": "string",
          "name": "",
          "type": "string"
        }
      ],
      "name": "receipts",
      "outputs": [
        {
          "internalType": "string",
          "name": "productId",
          "type": "string"
        },
        {
          "internalType": "string",
          "name": "description",
          "type": "string"
        },
        {
          "internalType": "address",
          "name": "customer",
          "type": "address"
        },
        {
          "internalType": "uint256",
          "name": "issueDate",
          "type": "uint256"
        },
        {
          "internalType": "uint256",
          "name": "warrantyPeriod",
          "type": "uint256"
        }
      ],
      "stateMutability": "view",
      "type": "function",
      "constant": true
    },
    {
      "inputs": [
        {
          "internalType": "string",
          "name": "_productId",
          "type": "string"
        },
        {
          "internalType": "string",
          "name": "_description",
          "type": "string"
        },
        {
          "internalType": "address",
          "name": "_customer",
          "type": "address"
        },
        {
          "internalType": "uint256",
          "name": "_warrantyPeriod",
          "type": "uint256"
        }
      ],
      "name": "issueReceipt",
      "outputs": [],
      "stateMutability": "nonpayable",
      "type": "function"
    },
    {
      "inputs": [
        {
          "internalType": "string",
          "name": "_productId",
          "type": "string"
        }
      ],
      "name": "getReceipt",
      "outputs": [
        {
          "internalType": "string",
          "name": "",
          "type": "string"
        },
        {
          "internalType": "string",
          "name": "",
          "type": "string"
        },
        {
          "internalType": "address",
          "name": "",
          "type": "address"
        },
        {
          "internalType": "uint256",
          "name": "",
          "type": "uint256"
        },
        {
          "internalType": "uint256",
          "name": "",
          "type": "uint256"
        }
      ],
      "stateMutability": "view",
      "type": "function",
      "constant": true
    },
    {
      "inputs": [
        {
          "internalType": "string",
          "name": "_productId",
          "type": "string"
        }
      ],
      "name": "isWarrantyValid",
      "outputs": [
        {
          "internalType": "bool",
          "name": "",
          "type": "bool"
        }
      ],
      "stateMutability": "view",
      "type": "function",
      "constant": true
    }
  ],
  "bytecode": "0x608060405234801561001057600080fd5b50610e23806100206000396000f3fe608060405234801561001057600080fd5b506004361061004c5760003560e01c806339fa66c914610051578063438166551461008557806380721bb9146100a1578063d6779d6f146100d5575b600080fd5b61006b60048036038101906100669190610929565b610105565b60405161007c959493929190610b06565b60405180910390f35b61009f600480360381019061009a919061096a565b6102f4565b005b6100bb60048036038101906100b69190610929565b61049d565b6040516100cc959493929190610b06565b60405180910390f35b6100ef60048036038101906100ea9190610929565b610619565b6040516100fc9190610aeb565b60405180910390f35b60608060008060008060008760405161011e9190610ad4565b90815260200160405180910390206040518060a001604052908160008201805461014790610cef565b80601f016020809104026020016040519081016040528092919081815260200182805461017390610cef565b80156101c05780601f10610195576101008083540402835291602001916101c0565b820191906000526020600020905b8154815290600101906020018083116101a357829003601f168201915b505050505081526020016001820180546101d990610cef565b80601f016020809104026020016040519081016040528092919081815260200182805461020590610cef565b80156102525780601f1061022757610100808354040283529160200191610252565b820191906000526020600020905b81548152906001019060200180831161023557829003601f168201915b505050505081526020016002820160009054906101000a900473ffffffffffffffffffffffffffffffffffffffff1673ffffffffffffffffffffffffffffffffffffffff1673ffffffffffffffffffffffffffffffffffffffff16815260200160038201548152602001600482015481525050905080600001518160200151826040015183606001518460800151955095509550955095505091939590929450565b600073ffffffffffffffffffffffffffffffffffffffff1660008560405161031c9190610ad4565b908152602001604051809103902060020160009054906101000a900473ffffffffffffffffffffffffffffffffffffffff1673ffffffffffffffffffffffffffffffffffffffff16146103a4576040517f08c379a000000000000000000000000000000000000000000000000000000000815260040161039b90610b67565b60405180910390fd5b6040518060a001604052808581526020018481526020018373ffffffffffffffffffffffffffffffffffffffff168152602001428152602001828152506000856040516103f19190610ad4565b9081526020016040518091039020600082015181600001908051906020019061041b9291906107f4565b5060208201518160010190805190602001906104389291906107f4565b5060408201518160020160006101000a81548173ffffffffffffffffffffffffffffffffffffffff021916908373ffffffffffffffffffffffffffffffffffffffff160217905550606082015181600301556080820151816004015590505050505050565b6000818051602081018201805184825260208301602085012081835280955050505050506000915090508060000180546104d690610cef565b80601f016020809104026020016040519081016040528092919081815260200182805461050290610cef565b801561054f5780601f106105245761010080835404028352916020019161054f565b820191906000526020600020905b81548152906001019060200180831161053257829003601f168201915b50505050509080600101805461056490610cef565b80601f016020809104026020016040519081016040528092919081815260200182805461059090610cef565b80156105dd5780601f106105b2576101008083540402835291602001916105dd565b820191906000526020600020905b8154815290600101906020018083116105c057829003601f168201915b5050505050908060020160009054906101000a900473ffffffffffffffffffffffffffffffffffffffff16908060030154908060040154905085565b60008060008360405161062c9190610ad4565b90815260200160405180910390206040518060a001604052908160008201805461065590610cef565b80601f016020809104026020016040519081016040528092919081815260200182805461068190610cef565b80156106ce5780601f106106a3576101008083540402835291602001916106ce565b820191906000526020600020905b8154815290600101906020018083116106b157829003601f168201915b505050505081526020016001820180546106e790610cef565b80601f016020809104026020016040519081016040528092919081815260200182805461071390610cef565b80156107605780601f1061073557610100808354040283529160200191610760565b820191906000526020600020905b81548152906001019060200180831161074357829003601f168201915b505050505081526020016002820160009054906101000a900473ffffffffffffffffffffffffffffffffffffffff1673ffffffffffffffffffffffffffffffffffffffff1673ffffffffffffffffffffffffffffffffffffffff168152602001600382015481526020016004820154815250509050806080015181606001516107e99190610c0f565b421115915050919050565b82805461080090610cef565b90600052602060002090601f0160209004810192826108225760008555610869565b82601f1061083b57805160ff1916838001178555610869565b82800160010185558215610869579182015b8281111561086857825182559160200191906001019061084d565b5b509050610876919061087a565b5090565b5b8082111561089357600081600090555060010161087b565b5090565b60006108aa6108a584610bb8565b610b87565b9050828152602081018484840111156108c257600080fd5b6108cd848285610cad565b509392505050565b6000813590506108e481610dbf565b92915050565b600082601f8301126108fb57600080fd5b813561090b848260208601610897565b91505092915050565b60008135905061092381610dd6565b92915050565b60006020828403121561093b57600080fd5b600082013567ffffffffffffffff81111561095557600080fd5b610961848285016108ea565b91505092915050565b6000806000806080858703121561098057600080fd5b600085013567ffffffffffffffff81111561099a57600080fd5b6109a6878288016108ea565b945050602085013567ffffffffffffffff8111156109c357600080fd5b6109cf878288016108ea565b93505060406109e0878288016108d5565b92505060606109f187828801610914565b91505092959194509250565b610a0681610c65565b82525050565b610a1581610c77565b82525050565b6000610a2682610be8565b610a308185610bf3565b9350610a40818560208601610cbc565b610a4981610dae565b840191505092915050565b6000610a5f82610be8565b610a698185610c04565b9350610a79818560208601610cbc565b80840191505092915050565b6000610a92600e83610bf3565b91507f416c7265616479206973737565640000000000000000000000000000000000006000830152602082019050919050565b610ace81610ca3565b82525050565b6000610ae08284610a54565b915081905092915050565b6000602082019050610b006000830184610a0c565b92915050565b600060a0820190508181036000830152610b208188610a1b565b90508181036020830152610b348187610a1b565b9050610b4360408301866109fd565b610b506060830185610ac5565b610b5d6080830184610ac5565b9695505050505050565b60006020820190508181036000830152610b8081610a85565b9050919050565b6000604051905081810181811067ffffffffffffffff82111715610bae57610bad610d7f565b5b8060405250919050565b600067ffffffffffffffff821115610bd357610bd2610d7f565b5b601f19601f8301169050602081019050919050565b600081519050919050565b600082825260208201905092915050565b600081905092915050565b6000610c1a82610ca3565b9150610c2583610ca3565b9250827fffffffffffffffffffffffffffffffffffffffffffffffffffffffffffffffff03821115610c5a57610c59610d21565b5b828201905092915050565b6000610c7082610c83565b9050919050565b60008115159050919050565b600073ffffffffffffffffffffffffffffffffffffffff82169050919050565b6000819050919050565b82818337600083830152505050565b60005b83811015610cda578082015181840152602081019050610cbf565b83811115610ce9576000848401525b50505050565b60006002820490506001821680610d0757607f821691505b60208210811415610d1b57610d1a610d50565b5b50919050565b7f4e487b7100000000000000000000000000000000000000000000000000000000600052601160045260246000fd5b7f4e487b7100000000000000000000000000000000000000000000000000000000600052602260045260246000fd5b7f4e487b7100000000000000000000000000000000000000000000000000000000600052604160045260246000fd5b6000601f19601f8301169050919050565b610dc881610c65565b8114610dd357600080fd5b50565b610ddf81610ca3565b8114610dea57600080fd5b5056fea264697066735822122004affe2722a2b623f1669070ac277d93d22d3d1b4c3916ae22c25e7b836f656064736f6c63430008000033",
  "immutableReferences": {},
  "source": "// SPDX-License-Identifier: MIT\r\npragma solidity ^0.8.0;\r\n\r\ncontract ReceiptWarranty {\r\n    struct Product {\r\n        string productId;\r\n        string description;\r\n        address customer;\r\n        uint256 issueDate;\r\n        uint256 warrantyPeriod;\r\n    }\r\n\r\n    mapping(string => Product) public receipts;\r\n\r\n    function issueReceipt(\r\n        string memory _productId,\r\n        string memory _description,\r\n        address _customer,\r\n        uint256 _warrantyPeriod\r\n    ) public {\r\n        require(receipts[_productId].customer == address(0), \"Already issued\");\r\n        receipts[_productId] = Product(_productId, _description, _customer, block.timestamp, _warrantyPeriod);\r\n    }\r\n\r\n    function getReceipt(string memory _productId)\r\n        public\r\n        view\r\n        returns (\r\n            string memory,\r\n            string memory,\r\n            address,\r\n            uint256,\r\n            uint256\r\n        )\r\n    {\r\n        Product memory p = receipts[_productId];\r\n        return (p.productId, p.description, p.customer, p.issueDate, p.warrantyPeriod);\r\n    }\r\n\r\n    function isWarrantyValid(string memory _productId) public view returns (bool) {\r\n        Product memory p = receipts[_productId];\r\n        return (block.timestamp <= p.issueDate + p.warrantyPeriod);\r\n    }\r\n}\r\n",
  "sourcePath": "C:\\Users\\TULASI\\OneDrive\\Desktop\\receipt-warranty-system\\contracts\\ReceiptWarranty.sol",
  "compiler": {
    "name": "solc",
    "version": "0.8.0+commit.c7dfd78e.Emscripten.clang"
  },
  "schemaVersion": "3.4.16",
  "updatedAt": "2025-04-20T12:33:03.947Z",
  "networkType": "ethereum",
  "devdoc": {
    "kind": "dev",
    "methods": {},
    "version": 1
  },
  "userdoc": {
    "kind": "user",
    "methods": {},
    "version": 1
  }
}